:0400000007EF00F016
:0A0008007C82BEED0CF010EF20F03A
:10100000003738392F3435362A3132332D54303DBC
:101010002B3432353100656E74657220746865203A
:1010200070617373776F72643A00746865206C6FD7
:10103000636B2077696C6C20636C6F736500696EFD
:10104000636F72726563742070617373776F72641B
:1010500000796F75206D6179206265206120746868
:1010600069656600746865206C6F636B2077696CD6
:101070006C206F70656E00747279206F6E65206DE4
:101080006F726500252E316600252E3666002569B3
:1010900000004750800B506E47504724526E46AEBA
:1010A00054EF08F056EF08F057EF08F05280525016
:1010B000D8B45DEF08F05FEF08F074EF08F0522845
:1010C000D8A465EF08F067EF08F06FEF08F0000EA6
:1010D000446E000E456E000E466E000E476E468E44
:1010E000000E476E7CEF08F0000E446E000E456E59
:1010F000000E466E000E476E4B50800B516E5050E6
:101100005118D8B486EF08F088EF08F089EF08F09E
:10111000508C4B504B24516E4AAE91EF08F093EF38
:1011200008F094EF08F051805150D8B49AEF08F0CD
:101130009CEF08F0B1EF08F05128D8A4A2EF08F016
:10114000A4EF08F0ACEF08F0000E486E000E496EF8
:10115000000E4A6E000E4B6E4A8E000E4B6EB9EFBB
:1011600008F0000E486E000E496E000E4A6E000E2A
:101170004B6E5250515CD8B0C0EF08F0C2EF08F08F
:10118000E9EF08F050ACC7EF08F0C9EF08F0CBEF7B
:1011900008F0800E501A52C053F051C052F053C0A4
:1011A00051F044C053F048C044F053C048F045C02B
:1011B00053F049C045F053C049F046C053F04AC00F
:1011C00046F053C04AF047C053F04BC047F053C0FD
:1011D0004BF0000E536E525051C04CF04D6A4C5EB5
:1011E000000E4D5A4DBEFEEF08F04D5009E11A0EAB
:1011F0004C5CD8A0FEEF08F000EF09F037EF09F0E3
:101200004450451046104710D8A409EF09F00CEFE0
:1012100009F0010E0DEF09F0000E536E000E446E42
:10122000000E456E000E466E000E476E51C052F025
:1012300040EF09F053A01FEF09F021EF09F027EF6D
:1012400009F0D89053300109536E29EF09F0D89076
:10125000533244A02EEF09F030EF09F031EF09F0DE
:10126000538E47344732463245324432522A515027
:10127000525CD8A03EEF09F040EF09F01AEF09F0F8
:1012800050BC45EF09F047EF09F087EF09F05250E5
:10129000D8A44DEF09F04FEF09F059EF09F0000E17
:1012A000446E000E456E000E466E000E476EA8EFAF
:1012B0000AF048504426495045224A5046224B5095
:1012C000472247A066EF09F068EF09F014EF0AF033
:1012D00053A06DEF09F06FEF09F075EF09F0D890AA
:1012E00053300109536E77EF09F0D890533244A080
:1012F0007CEF09F07EEF09F07FEF09F0538E473461
:101300004732463245324432522A14EF0AF04850EE
:10131000445C495045584A5046584750800A4C6EE4
:101320004B50800A4C58D8B098EF09F09AEF09F06A
:10133000C5EF09F04450485C4C6E455049584D6E1D
:1013400046504A584E6E47504B584F6EFF0E4C2435
:10135000446EFF0E4D20456EFF0E4E20466EFF0E72
:101360004F20476E800E501A536C5350D8A4BBEFD9
:1013700009F0BDEF09F0CDEF09F0010E4426000E93
:10138000452246224722CDEF09F04850445E49509D
:10139000455A4A50465A4B50475A445045104610F9
:1013A0004710D8A4D6EF09F0D8EF09F00DEF0AF0F6
:1013B0005350D8A4DEEF09F0E0EF09F00DEF0AF08A
:1013C000000E446E000E456E000E466E000E476E17
:1013D000A8EF0AF0D890443645364636473653AE25
:1013E000F4EF09F0F6EF09F0F7EF09F0448053A0AD
:1013F000FCEF09F0FEEF09F002EF0AF0D880533657
:1014000004EF0AF0D89053365250D8B40AEF0AF0DD
:101410000CEF0AF00DEF0AF0520646AE12EF0AF09A
:1014200014EF0AF0EAEF09F0000E516E53AE1BEF15
:101430000AF01DEF0AF035EF0AF053C04CF07F0EB2
:101440004C16D8B426EF0AF028EF0AF02CEF0AF079
:10145000010E516E35EF0AF044A031EF0AF033EF80
:101460000AF035EF0AF028EF0AF05150D8B43BEFFC
:101470000AF03DEF0AF068EF0AF0010E4426000E74
:1014800045224622472247A048EF0AF04AEF0AF0D9
:1014900068EF0AF044C04CF045C04DF046C04EF035
:1014A00047C04FF04F344F324E324D324C324CC069
:1014B00044F04DC045F04EC046F04FC047F05228B2
:1014C000D8B465EF0AF067EF0AF068EF0AF0522A25
:1014D0005228D8B46EEF0AF070EF0AF078EF0AF0F5
:1014E0005250D8A476EF0AF078EF0AF08AEF0AF0AB
:1014F000000E446E000E456E000E466E000E476EE6
:101500005250D8A486EF0AF088EF0AF08AEF0AF06A
:10151000000E506E52A08FEF0AF091EF0AF094EF98
:101520000AF0468E95EF0AF0469ED8905230476EEC
:1015300050AE9DEF0AF09FEF0AF0A0EF0AF0478E41
:1015400044C044F045C045F046C046F047C047F0AF
:1015500012001550800B1E6E15501524246E14AE0B
:10156000B4EF0AF0B6EF0AF0B7EF0AF02480245087
:10157000D8B4BDEF0AF0BFEF0AF0D2EF0AF024288A
:10158000D8A4C5EF0AF0C7EF0AF0CFEF0AF0000EBB
:10159000126E000E136E000E146E000E156E148E79
:1015A000DAEF0AF0000E126E000E136E000E146ECB
:1015B000000E156E1950800B1E1A195019241F6E3B
:1015C00018AEE5EF0AF0E7EF0AF0E8EF0AF01F8047
:1015D0001F50D8B4EEEF0AF0F0EF0AF003EF0BF073
:1015E0001F28D8A4F6EF0AF0F8EF0AF000EF0BF08E
:1015F000000E166E000E176E000E186E000E196E9D
:10160000188E0BEF0BF0000E166E000E176E000E0C
:10161000186E000E196E1F50D8B411EF0BF013EFB7
:101620000BF01BEF0BF02450D8A419EF0BF01BEFBD
:101630000BF025EF0BF0000E126E000E136E000E75
:10164000146E000E156EBDEF0CF018501202F3CFA1
:1016500029F0F4CF2AF02950206E216A226A236AE9
:101660002A50256E266A276A286A17501302F3CF7C
:1016700029F0F4CF2AF029502026000E2122222220
:1016800023222A502526000E262227222822165001
:101690001402F3CF29F0F4CF2AF029502026000EAF
:1016A0002122222223222A502526000E262227220A
:1016B000282222C023F021C022F020C021F0206A7D
:1016C00016501302F3CF29F0F4CF2AF02950202628
:1016D0002A502122000E2222000E2322175012022D
:1016E000F3CF29F0F4CF2AF0295020262A502122C6
:1016F000000E2222000E232222C023F021C022F05D
:1017000020C021F0206A16501202F3CF29F0F4CF46
:101710002AF0295020262A502122000E2222000ED3
:10172000232218501302F3CF29F0F4CF2AF02950C6
:1017300025262A502622000E2722000E2822175086
:101740001402F3CF29F0F4CF2AF0295025262A508D
:101750002622000E2722000E282218501402F3CF52
:1017600029F0F4CF2AF029501A6E2A501B6E1C6AF9
:101770001D6A1CC01DF01BC01CF01AC01BF01A6AA9
:101780001A5025261B5026221C5027221D50282285
:1017900020C01AF021C01BF022C01CF023C01DF095
:1017A000190ED8EF0BF0D8901D321C321B321A32B2
:1017B000E82ED3EF0BF01A5025261B5026221C5082
:1017C00027221D50282222C023F021C022F020C051
:1017D00021F0206A1F5024C01AF01B6A1A26000E3E
:1017E0001B22820E1A24296EFF0E1B202A6E0EEF7A
:1017F0000CF0D890253626362736283623AE03EF50
:101800000CF005EF0CF006EF0CF02580D890203698
:101810002136223623362906D8A02A0627AE13EF12
:101820000CF015EF0CF0F9EF0BF0000E1F6E23AE6D
:101830001CEF0CF01EEF0CF042EF0CF0FF0E20142A
:101840001A6EFF0E21141B6EFF0E22141C6E7F0EEB
:1018500023141D6E1A501B101C101D10D8B433EF2A
:101860000CF035EF0CF039EF0CF0010E1F6E42EF6B
:101870000CF025A03EEF0CF040EF0CF042EF0CF026
:1018800035EF0CF01F50D8B448EF0CF04AEF0CF0D5
:101890006EEF0CF0010E2526000E262227222822AC
:1018A00028A055EF0CF057EF0CF06EEF0CF025C0B0
:1018B0001AF026C01BF027C01CF028C01DF01D34F4
:1018C0001D321C321B321A321AC025F01BC026F002
:1018D0001CC027F01DC028F0294A2A2A2ABE79EF09
:1018E0000CF02A5008E12928D8A079EF0CF07BEF02
:1018F0000CF085EF0CF0000E256E000E266E800EAB
:10190000276E7F0E286EB3EF0CF02ABE92EF0CF01C
:101910002A5006E12904D8B090EF0CF092EF0CF0B9
:101920009EEF0CF0000E256E000E266E000E276E48
:10193000000E286E000E1E6EB3EF0CF029C024F0CE
:10194000FF0E2516FF0E26167F0E2716000E2816F0
:1019500024A0ADEF0CF0AFEF0CF0B0EF0CF0278E41
:10196000D8902430286E1E50281225C012F026C0B0
:1019700013F027C014F028C015F012000600FACFAB
:1019800002F0FBCF03F0F2A8C8EF0CF0CAEF0CF0A6
:10199000D3EF0CF0F2A2CFEF0CF0D1EF0CF0D3EFBD
:1019A0000CF091EC28F0F0A6D8EF0CF0DAEF0CF088
:1019B000E3EF0CF0F0A0DFEF0CF0E1EF0CF0E3EF61
:1019C0000CF08FEC28F0F0A8E8EF0CF0EAEF0CF048
:1019D000F3EF0CF0F0A2EFEF0CF0F1EF0CF0F3EFFF
:1019E0000CF08DEC28F09DACF8EF0CF0FAEF0CF059
:1019F00003EF0DF09EACFFEF0CF001EF0DF003EFE5
:101A00000DF099EC28F0F2AA08EF0DF00AEF0DF0B6
:101A100013EF0DF0F2A40FEF0DF011EF0DF013EF37
:101A20000DF0F1EC26F09DA018EF0DF01AEF0DF07F
:101A300023EF0DF09EA01FEF0DF021EF0DF023EF2F
:101A40000DF0D5EC26F09DA228EF0DF02AEF0DF059
:101A500033EF0DF09EA22FEF0DF031EF0DF033EFCD
:101A60000DF07EEC28F0A0A238EF0DF03AEF0DF06B
:101A700043EF0DF0A1A23FEF0DF041EF0DF043EF6A
:101A80000DF071EC28F09DA848EF0DF04AEF0DF035
:101A900053EF0DF09EA84FEF0DF051EF0DF053EF07
:101AA0000DF093EC28F09DAA58EF0DF05AEF0DF0D1
:101AB00063EF0DF09EAA5FEF0DF061EF0DF063EFA5
:101AC0000DF09CEC28F09DA668EF0DF06AEF0DF08C
:101AD00073EF0DF09EA66FEF0DF071EF0DF073EF49
:101AE0000DF09BEC28F0A0A678EF0DF07AEF0DF04A
:101AF00083EF0DF0A1A67FEF0DF081EF0DF083EFE6
:101B00000DF09DEC28F09DA488EF0DF08AEF0DF00C
:101B100093EF0DF09EA48FEF0DF091EF0DF093EF8A
:101B20000DF097EC28F0A0A098EF0DF09AEF0DF0D3
:101B3000A3EF0DF0A1A09FEF0DF0A1EF0DF0A3EF2B
:101B40000DF095EC28F0F2A6A8EF0DF0AAEF0DF03D
:101B5000C5EF0DF0F2A0AFEF0DF0B1EF0DF0C5EF56
:101B60000DF081A8B6EF0DF0B8EF0DF0C5EF0DF058
:101B70007804D8A4BEEF0DF0C0EF0DF0C5EF0DF066
:101B8000000E786E000E3EEC28F0F2A6CAEF0DF0C3
:101B9000CCEF0DF0E7EF0DF0F2A0D1EF0DF0D3EFA9
:101BA0000DF0E7EF0DF081B8D8EF0DF0DAEF0DF0A2
:101BB000E7EF0DF07850D8A4E0EF0DF0E2EF0DF074
:101BC000E7EF0DF0010E786E010E3EEC28F0F2A664
:101BD000ECEF0DF0EEEF0DF009EF0EF0F2A0F3EFE9
:101BE0000DF0F5EF0DF009EF0EF081AAFAEF0DF010
:101BF000FCEF0DF009EF0EF07704D8A402EF0EF021
:101C000004EF0EF009EF0EF0000E776E000E31ECCF
:101C100028F0F2A60EEF0EF010EF0EF02BEF0EF004
:101C2000F2A015EF0EF017EF0EF02BEF0EF081BAC9
:101C30001CEF0EF01EEF0EF02BEF0EF07750D8A435
:101C400024EF0EF026EF0EF02BEF0EF0010E776E64
:101C5000010E31EC28F0F2A630EF0EF032EF0EF06C
:101C60004DEF0EF0F2A037EF0EF039EF0EF04DEF22
:101C70000EF081AC3EEF0EF040EF0EF04DEF0EF0A7
:101C80007604D8A446EF0EF048EF0EF04DEF0EF0BC
:101C9000000E766E000E24EC28F0F2A652EF0EF045
:101CA00054EF0EF06FEF0EF0F2A059EF0EF05BEF75
:101CB0000EF06FEF0EF081BC60EF0EF062EF0EF0F1
:101CC0006FEF0EF07650D8A468EF0EF06AEF0EF0CA
:101CD0006FEF0EF0010E766E010E24EC28F0F2A6E6
:101CE00074EF0EF076EF0EF091EF0EF0F2A07BEFB6
:101CF0000EF07DEF0EF091EF0EF081AE82EF0EF060
:101D000084EF0EF091EF0EF07504D8A48AEF0EF078
:101D10008CEF0EF091EF0EF0000E756E000E17ECCA
:101D200028F0F2A696EF0EF098EF0EF0B3EF0EF05B
:101D3000F2A09DEF0EF09FEF0EF0B3EF0EF081BE1C
:101D4000A4EF0EF0A6EF0EF0B3EF0EF07550D8A48E
:101D5000ACEF0EF0AEEF0EF0B3EF0EF0010E756EBD
:101D6000010E17EC28F003C0FBFF02C0FAFF7C92C3
:101D700011002E50800B3B6E2E502E24426E2DAE45
:101D8000C4EF0EF0C6EF0EF0C7EF0EF042804250E7
:101D9000D8B4CDEF0EF0CFEF0EF0E4EF0EF0422806
:101DA000D8A4D5EF0EF0D7EF0EF0DFEF0EF0000E57
:101DB0002B6E000E2C6E000E2D6E000E2E6E2D8ED4
:101DC000000E2E6EECEF0EF0000E2B6E000E2C6E41
:101DD000000E2D6E000E2E6E3250800B3B1A3250CC
:101DE0003224436E31AEF7EF0EF0F9EF0EF0FAEF5A
:101DF0000EF043804350D8B400EF0FF002EF0FF025
:101E000017EF0FF04328D8A408EF0FF00AEF0FF0F8
:101E100012EF0FF0000E2F6E000E306E000E316EBE
:101E2000000E326E318E000E326E1FEF0FF0000E7C
:101E30002F6E000E306E000E316E000E326E2F507F
:101E4000301031103210D8A428EF0FF02AEF0FF025
:101E500042EF0FF0000E2B6E000E2C6E000E2D6E5A
:101E6000000E2E6E800E2D127F0E2E123B502E1263
:101E70002BC02BF02CC02CF02DC02DF02EC02EF03E
:101E800085EF10F04250D8A448EF0FF04AEF0FF062
:101E900054EF0FF0000E2B6E000E2C6E000E2D6E08
:101EA000000E2E6E85EF10F0435042C033F0346ABE
:101EB000335E000E345A7F0E33243C6E000E342005
:101EC0003D6E2BC037F02CC038F02DC039F02EC03D
:101ED0003AF0000E2B6E000E2C6E000E2D6E000ED2
:101EE0002E6E000E3E6E000E3F6E000E406E000E17
:101EF000416E000E436EB5EF0FF04350D8B483EF40
:101F00000FF085EF0FF09CEF0FF0D8903736383692
:101F100039363A36D8902B362C362D362E3641AE01
:101F200094EF0FF096EF0FF097EF0FF02B80D89013
:101F30003E363F36403641362F50375C30503858A9
:101F40003150395832503A58D8A0A9EF0FF0ABEFC2
:101F50000FF0B4EF0FF0418C2F50375E3050385AED
:101F60003150395A32503A5A432A190E4364BBEF62
:101F70000FF0BDEF0FF07DEF0FF037503810391034
:101F80003A10D8B4C6EF0FF0C8EF0FF0E0EF0FF043
:101F90003E80E0EF0FF0D8902B362C362D362E36C3
:101FA00041AED5EF0FF0D7EF0FF0D8EF0FF02B8049
:101FB000D8903E363F36403641363C06D8A03D06E6
:101FC0002DAEE5EF0FF0E7EF0FF0CBEF0FF0000EC7
:101FD000436E41AEEEEF0FF0F0EF0FF014EF10F0A4
:101FE000FF0E3E14336EFF0E3F14346EFF0E40148E
:101FF000356E7F0E4114366E335034103510361066
:10200000D8B405EF10F007EF10F00BEF10F0010E51
:10201000436E14EF10F02BA010EF10F012EF10F041
:1020200014EF10F007EF10F04350D8B41AEF10F08F
:102030001CEF10F040EF10F0010E2B26000E2C22AA
:102040002D222E222EA027EF10F029EF10F040EFC6
:1020500010F02BC033F02CC034F02DC035F02EC062
:1020600036F03634363235323432333233C02BF038
:1020700034C02CF035C02DF036C02EF03C4A3D2A3D
:102080003DBE4BEF10F03D5008E13C28D8A04BEF8F
:1020900010F04DEF10F058EF10F0000E3D6E3C6860
:1020A000000E2B6E000E2C6E000E2D6E000E2E6E8E
:1020B0003DBE65EF10F03D5006E13C04D8B063EF43
:1020C00010F065EF10F073EF10F0000E3D6E000E93
:1020D0003C6E000E2B6E000E2C6E000E2D6E000E50
:1020E0002E6E000E3B6E3CC042F042A07AEF10F024
:1020F0007CEF10F07FEF10F02D8E80EF10F02D9E12
:10210000D89042302E6E36EF0FF012000C6E0C504D
:10211000D8B48DEF10F08FEF10F0B1EF10F007BED4
:1021200096EF10F094EF10F0B1EF10F004C008F04B
:1021300005C009F006C00AF007C00BF0081E091E12
:102140000A1E0B1E082A000E09220A220B2208C0B2
:102150000EF009C00FF00AC010F00BC011F0B9EF7B
:1021600010F004C00EF005C00FF006C010F007C05C
:1021700011F00450051006100710D8A4C2EF10F09B
:10218000C4EF10F0CEEF10F0000E046E000E056EDE
:10219000000E066E000E076E5FEF11F0960E0D6ECC
:1021A000D8EF10F00D2AD890113210320F320E32C3
:1021B000000E0E14086E000E0F14096E000E10149F
:1021C0000A6EFE0E11140B6E085009100A100B1047
:1021D000D8A4EDEF10F0EFEF10F0D2EF10F0FDEF1C
:1021E00010F00D2A010E0E26000E0F2210221122D1
:1021F000D890113210320F320E32000E0E14086ECB
:10220000000E0F14096E000E10140A6EFF0E11144A
:102210000B6E085009100A100B10D8A412EF11F021
:1022200014EF11F0F1EF10F01CEF11F00D06D89043
:102230000E360F361036113610BE21EF11F023EF97
:1022400011F02BEF11F0020E0D6029EF11F02BEFC2
:1022500011F016EF11F00DB030EF11F032EF11F078
:1022600033EF11F0109ED8900D320DC008F0096ABE
:102270000A6A0B6A08C00BF00A6A096A086A085001
:102280000E1209500F120A5010120B5011120C505E
:10229000D8B44DEF11F04FEF11F057EF11F007BE2A
:1022A00056EF11F054EF11F057EF11F0118E0EC0F0
:1022B00004F00FC005F010C006F011C007F01200C6
:1022C0005E505F10D8A467EF11F069EF11F073EF63
:1022D00011F029EF12F0BA50F00B0C09BA6E80EF32
:1022E00011F080EF11F020EE02F05E50D9265F5021
:1022F000DA22DF500C0AD8B46BEF11F071EF11F055
:10230000000E166E000E176E800E186E400E196EBF
:1023100020EE05F05E50D9265F50DA22DECF04F0C1
:10232000DECF05F0DECF06F0DECF07F0000E86EC44
:1023300010F004C012F005C013F006C014F007C07E
:1023400015F0A9EC0AF012C061F013C062F014C0DD
:1023500063F015C064F020EE09F05E50D9265F509E
:10236000DA22DF500F0B606E6050046E056A066A59
:10237000076A010E86EC10F004C016F005C017F0D5
:1023800006C018F007C019F061C012F062C013F067
:1023900063C014F064C015F0A9EC0AF012C065F037
:1023A00013C066F014C067F015C068F0000E486EE8
:1023B000000E496E800E4A6EBF0E4B6E20EE09F085
:1023C0005E50D9265F50DA22DF38030B606E605012
:1023D000046E056A066A076A010E86EC10F004C0F6
:1023E00016F005C017F006C018F007C019F065C058
:1023F00012F066C013F067C014F068C015F0A9ECC5
:102400000AF012C02FF013C030F014C031F015C024
:1024100032F0000E2B6E240E2C6EF40E2D6E4A0E32
:102420002E6EB9EC0EF02BC044F02CC045F02DC040
:1024300046F02EC047F049EC08F044C054F045C0C7
:1024400055F046C056F047C057F0BFEC19F0545055
:10245000CB6E12005E505F10D8A431EF12F033EF54
:1024600012F03DEF12F0F3EF12F0BD50F00B0C093B
:10247000BD6E4AEF12F04AEF12F020EE02F05E500D
:10248000D9265F50DA22DF500C0AD8B435EF12F0AB
:102490003BEF12F0000E166E000E176E800E186ED7
:1024A000400E196E20EE05F05E50D9265F50DA22FC
:1024B000DECF04F0DECF05F0DECF06F0DECF07F092
:1024C000000E86EC10F004C012F005C013F006C038
:1024D00014F007C015F0A9EC0AF012C061F013C0A7
:1024E00062F014C063F015C064F020EE09F05E5095
:1024F000D9265F50DA22DF500F0B606E6050046EF9
:10250000056A066A076A010E86EC10F004C016F030
:1025100005C017F006C018F007C019F061C012F02E
:1025200062C013F063C014F064C015F0A9EC0AF0A7
:1025300012C065F013C066F014C067F015C068F0F3
:10254000000E486E000E496E800E4A6EBF0E4B6E36
:1025500020EE09F05E50D9265F50DA22DF38030BF7
:10256000606E6050046E056A066A076A010E86ECAA
:1025700010F004C016F005C017F006C018F007C030
:1025800019F065C012F066C013F067C014F068C09F
:1025900015F0A9EC0AF012C02FF013C030F014C0EF
:1025A00031F015C032F0000E2B6E240E2C6EF40E9E
:1025B0002D6E4A0E2E6EB9EC0EF02BC044F02CC0DE
:1025C00045F02DC046F02EC047F049EC08F044C05D
:1025D00054F045C055F046C056F047C057F0BFEC28
:1025E00019F05450CB6E12000001BD51D8A4FBEF7E
:1025F00012F0FDEF12F006EF13F0E30E116E010E74
:10260000126E2FEC23F0010E0001BD6F3D0E8219FA
:1026100007E1220E8319D8A410EF13F012EF13F084
:1026200059EF13F0040E6A18D8A419EF13F01BEF3A
:1026300013F059EF13F0E30E1C6E010E1D6E010E28
:102640001E6E400E1F6E1F50D8A4100E206E9EEC02
:1026500020F0216EE30E1C6E020E1D6E020E1E6E29
:102660002A0E1F6E1F50D8A4100E206E9EEC20F074
:10267000216EED0E076E600E086E620E096E730E0F
:102680000A6E43EC27F00001E105D8A44AEF13F0ED
:102690004CEF13F0ACEF13F063EC28F0010E0001E7
:1026A000E26F000EE16FFA0E0E6EF2EC1BF0ACEF73
:1026B00013F03D0E821907E1220E8319D8A463EFAF
:1026C00013F065EF13F06EEF13F0040E6A18D8B430
:1026D0006CEF13F06EEF13F0ACEF13F0E30E1C6E23
:1026E000010E1D6E010E1E6E3E0E1F6E1F50D8A4F1
:1026F000100E206E9EEC20F0216EE30E1C6E020E7A
:102700001D6E050E1E6E770E1F6E1F50D8A4100E84
:10271000206E9EEC20F0216E4BEC28F0E30E116E43
:10272000010E126E2FEC23F0E30E1C6E010E1D6ED7
:10273000010E1E6E160E1F6E1F50D8A4100E206EB6
:102740009EEC20F04BEC28F00001BC2B000E6A6ED2
:10275000000E836F000E826F12000001BF51D8A4DB
:10276000B4EF13F0B6EF13F0BFEF13F0E30E116EFA
:10277000010E126E2FEC23F0010E0001BF6FE10E6F
:10278000841907E1100E8519D8A4C9EF13F0CBEF17
:1027900013F012EF14F0040E6B18D8A4D2EF13F05C
:1027A000D4EF13F012EF14F0E30E1C6E010E1D6E49
:1027B000010E1E6E400E1F6E1F50D8A4100E206E0C
:1027C0009EEC20F0216EE30E1C6E020E1D6E020EBA
:1027D0001E6E640E1F6E1F50D8A4100E206E9EEC4D
:1027E00020F0216EED0E076E600E086E610E096E10
:1027F000730E0A6E43EC27F00001E205D8A403EF44
:1028000014F005EF14F065EF14F06AEC28F0000EF8
:102810000001E26F010EE16FFA0E0E6EF2EC1BF09A
:1028200065EF14F0E10E841907E1100E8519D8A4A4
:102830001CEF14F01EEF14F027EF14F0040E6B18C9
:10284000D8B425EF14F027EF14F065EF14F0E30E81
:102850001C6E010E1D6E010E1E6E3E0E1F6E1F5071
:10286000D8A4100E206E9EEC20F0216EE30E1C6E9C
:10287000020E1D6E050E1E6E770E1F6E1F50D8A421
:10288000100E206E9EEC20F0216E4BEC28F0E30E33
:10289000116E010E126E2FEC23F0E30E1C6E010E72
:1028A0001D6E010E1E6E160E1F6E1F50D8A4100E48
:1028B000206E9EEC20F04BEC28F00001BE2B000EA9
:1028C0006B6E000E856F000E846F1200F70E0D6E9A
:1028D000700E0E6E7BEC1DF0F40E0D6E6D0E0E6E16
:1028E0007BEC1DF07050D8A478EF14F07AEF14F060
:1028F000C5EF14F06D04D8A480EF14F082EF14F04B
:10290000C5EF14F00001C151D8A489EF14F08BEF8A
:1029100014F0A0EF14F0010EC16FE30E116E010E62
:10292000126E2FEC23F0000E6A6E000E0001836F12
:10293000000E826F000E6B6E000E856F000E846FAE
:10294000360E0E6E010E0F6E720E106E42EC1AF005
:10295000020E246E040E236EBA0EE82EFED7232E2E
:10296000FCD7242EFAD700D0540E7218D8A4BBEF8F
:1029700014F0BDEF14F0C1EF14F0ADEC13F016EF4E
:1029800015F0C6EC15F016EF15F07050D8A4CBEF8B
:1029900014F0CDEF14F016EF15F06D50D8A4D3EF6E
:1029A00014F0D5EF14F016EF15F00001C105D8A40E
:1029B000DCEF14F0DEEF14F0F3EF14F0000EC16F53
:1029C000E30E116E010E126E2FEC23F0000E6A6EF4
:1029D000000E0001836F000E826F000E6B6E000E02
:1029E000856F000E846F360E0E6E010E0F6E6F0E29
:1029F000106E42EC1AF0020E246E040E236EBA0E14
:102A0000E82EFED7232EFCD7242EFAD700D0540E62
:102A10006F18D8A40EEF15F010EF15F014EF15F0A5
:102A2000F4EC12F016EF15F017EC15F01200030E8F
:102A30000001BE611EEF15F020EF15F094EF15F0C8
:102A4000BD05D8A426EF15F028EF15F031EF15F0ED
:102A5000E30E116E010E126E2FEC23F0000E00013A
:102A6000BD6FE30E1C6E010E1D6E010E1E6E160E66
:102A70001F6E1F50D8A4100E206E9EEC20F06F0E1B
:102A8000116E6E0E126E56EC24F0040E6A604BEF5F
:102A900015F04DEF15F064EF15F0E30E1C6E020E0D
:102AA0001D6E6A50090F1E6E6F0E1F6E206A9EEC1F
:102AB00020F0E30E1C6E020E1D6E6A500C0F1E6E8F
:102AC000200E1F6E0DEC27F06E50D8B46AEF15F093
:102AD0006CEF15F0C5EF15F00A0E6E6072EF15F091
:102AE00074EF15F0C5EF15F04BEC28F0040E6A609A
:102AF0007CEF15F07EEF15F092EF15F082C004F038
:102B000083C005F0000E076E0A0E066E70EC27F00B
:102B10006E5004240001826F000E0520836F6A2A24
:102B2000C5EF15F0C5EF15F07A0E046E056A010EBB
:102B3000066E99EC17F0E30E116E010E126E2FEC7B
:102B400023F0E30E1C6E010E1D6E010E1E6E510E63
:102B50001F6E1F50D8A4100E206E9EEC20F0660E43
:102B6000226E760E216EC10EE82EFED7212EFCD7E6
:102B7000222EFAD700007A0E046E056A000E066E49
:102B800099EC17F0000E0001BE6F1200030E000159
:102B9000BE61CDEF15F0CFEF15F038EF16F0BF05A1
:102BA000D8A4D5EF15F0D7EF15F0E0EF15F0E30E50
:102BB000116E010E126E2FEC23F0000E0001BF6F9C
:102BC000E30E1C6E010E1D6E010E1E6E160E1F6EA4
:102BD0001F50D8A4100E206E9EEC20F0720E116EC5
:102BE000710E126E56EC24F0040E6B60FAEF15F0C5
:102BF000FCEF15F008EF16F0E30E1C6E020E1D6ED2
:102C00006B50090F1E6E720E1F6E206A9EEC20F034
:102C10007150D8B40EEF16F010EF16F069EF16F001
:102C20000A0E716016EF16F018EF16F069EF16F045
:102C30004BEC28F0040E6B6020EF16F022EF16F03C
:102C400036EF16F084C004F085C005F0000E076E64
:102C50000A0E066E70EC27F0715004240001846F98
:102C6000000E0520856F6B2A69EF16F069EF16F0EC
:102C70007A0E046E056A010E066E99EC17F0E30EEB
:102C8000116E010E126E2FEC23F0E30E1C6E010E7E
:102C90001D6E010E1E6E510E1F6E1F50D8A4100E19
:102CA000206E9EEC20F0660E226E760E216EC10E16
:102CB000E82EFED7212EFCD7222EFAD700007A0E5E
:102CC000046E056A000E066E99EC17F0000E000106
:102CD000BE6F1200010E0C6E04500510D8B473EFD5
:102CE00016F075EF16F086EF16F004C0D9FF05C098
:102CF000DAFFDF30E832E832070B066E070E0664B3
:102D000084EF16F086EF16F0E9EF16F0000E0C6E69
:102D100000EF17F004C0D9FF05C0DAFFDF30E8325A
:102D2000E832070B066E010E076E062A9AEF16F0C0
:102D3000D8900736062E98EF16F00750FF0A086E57
:102D400004C0D9FF05C0DAFFDF50070B096E095038
:102D5000020D140EF324D96E010EF420DA6EDECFCC
:102D60000AF0DDCF0BF00AC0D9FF0BC0DAFF085024
:102D7000DF1600EF17F004C0D9FF05C0DAFFDF301F
:102D8000E832E832070B066E010E076E062ACBEF1B
:102D900016F0D8900736062EC9EF16F004C0D9FFFA
:102DA00005C0DAFFDF50070B086E0850020D140E45
:102DB000F324D96E010EF420DA6EDECF09F0DDCFF8
:102DC0000AF009C0D9FF0AC0DAFF0750DF1200EF8E
:102DD00017F004C0D9FF05C0DAFFDFBCF2EF16F030
:102DE000F5EF16F0010EF6EF16F0000E000AD8B45B
:102DF0008AEF16F0010AD8B4BBEF16F086EF16F092
:102E00000C5012005E50D96EDA6A060ED926DFA089
:102E10000CEF17F00EEF17F05AEF17F05E50D96E67
:102E2000DA6A040ED926DF505F6EC6505F18F00BC9
:102E30005F18C66E000E486E000E496E800E4A6E18
:102E4000BF0E4B6E5E50D96EDA6ADECF04F0DECF75
:102E500005F0DECF06F0DECF07F0000E86EC10F0B6
:102E600004C02FF005C030F006C031F007C032F0CA
:102E7000000E2B6E240E2C6EF40E2D6E490E2E6E4F
:102E8000B9EC0EF02BC044F02CC045F02DC046F03C
:102E90002EC047F049EC08F044C054F045C055F04E
:102EA00046C056F047C057F0BFEC19F05450C86EFA
:102EB00098EF17F05E50D96EDA6A060ED926DFB0A9
:102EC00064EF17F066EF17F098EF17F05E50D96EC9
:102ED000DA6A060ED926DFA670EF17F072EF17F048
:102EE00075EF17F0C58E82EF17F05E50D96EDA6A73
:102EF000060ED926DFB67FEF17F081EF17F082EFCD
:102F000017F0C59EC69EC69CC6885E50D96EDA6A0A
:102F1000050ED926DF50C86E5E50D96EDA6A040EEF
:102F2000D926DF505F6EC6505F18F00B5F18C66E73
:102F30001200010E0D6E04500510D8B4A2EF17F068
:102F4000A4EF17F0B5EF17F004C0D9FF05C0DAFF02
:102F5000DF30E832E832070B076E070E0764B3EF85
:102F600017F0B5EF17F018EF18F0000E0D6E2DEFFB
:102F700018F004C0D9FF05C0DAFFDF30E832E832CC
:102F8000070B076E010E086E072AC9EF17F0D890DD
:102F90000836072EC7EF17F004C0D9FF05C0DAFFC7
:102FA000DF50070B096E0950020D0A0EF324D96E8B
:102FB000010EF420DA6EDECF0AF0DDCF0BF00AC08E
:102FC000D9FF0BC0DAFF0850DF122DEF18F004C054
:102FD000D9FF05C0DAFFDF30E832E832070B076EB1
:102FE000010E086E072AF7EF17F0D8900836072E63
:102FF000F5EF17F00850FF0A096E04C0D9FF05C0AD
:10300000DAFFDF50070B0A6E0A50020D0A0EF32496
:10301000D96E010EF420DA6EDECF0BF0DDCF0CF0AE
:103020000BC0D9FF0CC0DAFF0950DF162DEF18F0E6
:103030000650076E086A0850000AD8B422EF18F04C
:10304000B5EF17F00750000AD8B4E7EF17F0010A00
:10305000D8B4B9EF17F0B5EF17F00D501200000E0D
:10306000106E000E0F6E000E0E6E38EF18F00A2A6A
:103070000A50D96EDA6A200EDE18D8B442EF18F082
:1030800044EF18F037EF18F00A50D96EDA6ADF50C3
:103090000C6EF70E0C26040E0C6451EF18F053EF73
:1030A00018F037EF18F00A50D96EDA6A2D0EDE18D4
:1030B000D8A45DEF18F05FEF18F064EF18F0010E80
:1030C0000E6E0A2A8DEF18F00A50D96EDA6A2B0EAE
:1030D000DE18D8A46EEF18F070EF18F08DEF18F02E
:1030E00061EF18F00FC004F010C005F0000E076E7D
:1030F0000A0E066E70EC27F00A50D96EDA6ADF50BD
:103100000C6E0C50045E000E055A300E04240F6E37
:10311000000E0520106E61EF18F00A50D96EDA6AC1
:10312000DF500C6ED00E0C26090E0C649AEF18F0CE
:103130009CEF18F072EF18F00E50D8A4A2EF18F020
:10314000A4EF18F0B2EF18F00FC00CF010C00DF0A3
:103150000C1E0D1E0C4A0D2A0CC00AF00DC00BF0FF
:10316000B6EF18F00FC00AF010C00BF01200000EFE
:103170001B6E000E1A6E1850D8A4C1EF18F0C3EFE2
:1031800018F0C5EF18F03AEF19F018C00EF00F6AFA
:10319000FFEC24F01C6E18C019F0010E192619C09E
:1031A0000EF00F6AFFEC24F01C6E000E1B6E000E7A
:1031B0001A6E18501A24196E020E192619C00EF034
:1031C0000F6AFFEC24F01A4A1B2A1BBEF1EF18F01D
:1031D0001B5009E1080E1A5CD8A0F1EF18F0F3EFCC
:1031E00018F0D9EF18F0340E196EF20EE82EFED753
:1031F000192EFCD718C011F0380E126E2FEC23F0E8
:103200000D0E196EFC0EE82EFED7192EFCD718C035
:1032100011F0380E126E2FEC23F0640EE82EFED75C
:1032200018C011F0380E126E2FEC23F018C011F0F8
:10323000010E126E2FEC23F018C011F0020E126E68
:103240002FEC23F018C011F0060E126E2FEC23F0B5
:1032500018C011F00C0E126E2FEC23F018C011F0F4
:10326000380E126E2FEC23F018C011F0800E126E83
:103270002FEC23F01200646E000E666E000E656E79
:10328000000E2F6E000E306EC80E316E420E326E82
:103290006450046E056A066A076A010E86EC10F037
:1032A00004C02BF005C02CF006C02DF007C02EF096
:1032B000B9EC0EF02BC016F02CC017F02DC018F092
:1032C0002EC019F0CB505E6E5F6A010E5E26000EB6
:1032D0005F225EC004F05FC005F0000E05BEFF0E69
:1032E000066E076E010E86EC10F004C012F005C0E9
:1032F00013F006C014F007C015F0A9EC0AF012C0D4
:1033000060F013C061F014C062F015C063F0000EED
:10331000166E000E176E800E186E400E196E60C08D
:1033200012F061C013F062C014F063C015F0A9EC94
:103330000AF012C054F013C055F014C056F015C076
:1033400057F0BFEC19F054C065F055C066F065C089
:103350005EF0030E5E165E3ABD505E18CF0B5E182F
:10336000BD6E65C05EF066C05FF0D8905F325E32C1
:10337000D8905F325E325E50BE6E010E120056343F
:1033800057345D6E5D50D8A4C8EF19F0CAEF19F03C
:10339000D4EF19F0000E546E000E556E000E566EEE
:1033A000000E576E41EF1AF054C058F055C059F056
:1033B00056C05AF057C05BF0200EE4EF19F0D890D9
:1033C0005B325A3259325832E82EDFEF19F058503A
:1033D0005C6E568EFF0E5416FF0E5516FF0E5616D7
:1033E000000E5716960E5D5E5DBEFBEF19F0F9EF0D
:1033F00019F011EF1AF05D50800A970FD8B003EF63
:103400001AF005EF1AF007EF1AF0CAEF19F0D8908A
:1034100057325632553254325D3E07EF1AF029EFDB
:103420001AF01F0E5D6417EF1AF019EF1AF021EF72
:103430001AF0CAEF19F0D89054365536563657362A
:103440005D065D50D8A427EF1AF029EF1AF01BEFA4
:103450001AF05C50D8B42FEF1AF031EF1AF039EFB0
:103460001AF0571E561E551E546C000E5522562239
:10347000572254C054F055C055F056C056F057C0AE
:1034800057F01200000E166E000E156E000E176E2D
:10349000000E146E0E500F10D8A451EF1AF053EF17
:1034A0001AF057EF1AF0000E136EB6EF1AF0000E76
:1034B000166E000E156E15500E24046E000E0F20B1
:1034C000056E000E066E99EC17F0152A030E1564B2
:1034D0006CEF1AF06EEF1AF05BEF1AF016500E2434
:1034E000046E000E0F20056E010E066E99EC17F0AB
:1034F000000E176E17500E24116E000E0F20126E64
:10350000040E1124046E000E1220056E140E066EB9
:10351000D5EC1DF0136E1404D8A491EF1AF093EFBC
:103520001AF0A4EF1AF01650040DF350010F1724EF
:10353000116E11C0F6FF100EF76EF86A1050D96EBA
:10354000DA6A0800F5CFDFFF172A030E1764ABEF26
:103550001AF0ADEF1AF07AEF1AF0162A030E16647D
:10356000B4EF1AF0B6EF1AF059EF1AF01350120038
:10357000066EE2EF1AF0928023EF1BF0928223EFA7
:103580001BF0928423EF1BF0928623EF1BF0928AAC
:1035900023EF1BF0968023EF1BF0968223EF1BF0A6
:1035A000968423EF1BF0938423EF1BF0938623EF85
:1035B0001BF0938223EF1BF0938823EF1BF0938083
:1035C00023EF1BF00650046E056A0550000AD8B4BC
:1035D000ECEF1AF023EF1BF00450000AD8B4BBEF55
:1035E0001AF0010AD8B4BEEF1AF0030AD8B4C1EF3A
:1035F0001AF0010AD8B4C4EF1AF0070AD8B4C7EF1A
:103600001AF0010AD8B4CAEF1AF0030AD8B4CDEF01
:103610001AF0010AD8B4D0EF1AF00F0AD8B4D3EFD9
:103620001AF0010AD8B4D6EF1AF0030AD8B4D9EFC9
:103630001AF0010AD8B4DCEF1AF0070AD8B4DFEFA9
:103640001AF023EF1BF012000E50D8A42AEF1BF043
:103650002CEF1BF02EEF1BF08AEF1BF0CCC010F00C
:103660000E50D96EDA6ADF500F0B0F6E10500F1824
:10367000F80B0F18106E0E50D96EDA6ADF38070B90
:103680000F6E0F460F460F4610500F18C70B0F183E
:10369000106E109C0E50D96EDA6ADFAE02D0108E1A
:1036A00001D0109ECBC011F00E50D96EDA6A010E17
:1036B000D926DF500F0B0F6E11500F18F80B0F1893
:1036C000116E0E50D96EDA6A010ED926DF38070B5B
:1036D0000F6E0F460F460F4611500F18C70B0F18ED
:1036E000116E119C0E50D96EDA6A010ED926DFAE2A
:1036F00002D0118E01D0119E100E046E056A010ECB
:10370000066E99EC17F0110E046E056A000E066E37
:1037100099EC17F012000E50D8A491EF1BF093EF24
:103720001BF095EF1BF0F1EF1BF0CEC010F00E5028
:10373000D96EDA6ADF500F0B0F6E10500F18F80BAE
:103740000F18106E0E50D96EDA6ADF38070B0F6E45
:103750000F460F460F4610500F18C70B0F18106E6C
:10376000109C0E50D96EDA6ADFAE02D0108E01D0F6
:10377000109ECDC011F00E50D96EDA6A010ED92616
:10378000DF500F0B0F6E11500F18F80B0F18116E42
:103790000E50D96EDA6A010ED926DF38070B0F6E8C
:1037A0000F460F460F4611500F18C70B0F18116E1A
:1037B000119C0E50D96EDA6A010ED926DFAE02D006
:1037C000118E01D0119E100E046E056A000E066E59
:1037D00099EC17F0110E046E056A010E066E99EC55
:1037E00017F012000E50D8A4F8EF1BF0FAEF1BF000
:1037F000FCEF1BF058EF1CF0CAC010F00E50D96E51
:10380000DA6ADF500F0B0F6E10500F18F80B0F18FD
:10381000106E0E50D96EDA6ADF38070B0F6E0F4646
:103820000F460F4610500F18C70B0F18106E109C44
:103830000E50D96EDA6ADFAE02D0108E01D0109E23
:10384000C9C011F00E50D96EDA6A010ED926DF50C8
:103850000F0B0F6E11500F18F80B0F18116E0E5042
:10386000D96EDA6A010ED926DF38070B0F6E0F46C4
:103870000F460F4611500F18C70B0F18116E119CF1
:103880000E50D96EDA6A010ED926DFAE02D0118E43
:1038900001D0119E100E046E056A010E066E99ECA1
:1038A00017F0110E046E056A010E066E99EC17F002
:1038B00012001250D8A45FEF1CF061EF1CF063EF10
:1038C0001CF0BBEF1CF0D0C014F01250D96EDA6AB5
:1038D000DF500F0B136E14501318F80B1318146EDF
:1038E0001250D96EDA6ADF38070B136E134613468F
:1038F000134614501318C70B1318146E149C12504F
:10390000D96EDA6ADFAE02D0148E01D0149ECFC019
:1039100015F01250D96EDA6A010ED926DF500F0B5E
:10392000136E15501318F80B1318156E1250D96E2C
:10393000DA6A010ED926DF38070B136E13461346D9
:10394000134615501318C70B1318156E159C1250FB
:10395000D96EDA6A010ED926DFAE02D0158E01D0FB
:10396000159E140E0E6E0F6AFFEC24F0150E0E6EEF
:103970000F6AFFEC24F0120007500810D8A4C3EF20
:103980001CF0C5EF1CF0C9EF1CF0000E0A6E1AEF18
:103990001DF0C29020EE03F00750D9260850DA221D
:1039A000DF50096E094609460946C0500918C70B81
:1039B0000918C06E20EE04F00750D9260850DA220C
:1039C000DF50096EC0500918F80B0918C06E20EEC0
:1039D00005F00750D9260850DA22DF50096E094653
:1039E0000946C2500918C30B0918C26E20EE05F033
:1039F0000750D9260850DA22DF50B8EC1AF09D8C17
:103A00009E9C07C0D9FF08C0DAFFDECFB8F0DDCF3B
:103A1000B9F0F28EF28C07C004F008C005F0D5ECC6
:103A200025F007C004F008C005F0B0EC25F0C28016
:103A3000010E0A6E0A50120004500510D8B423EF8C
:103A40001DF025EF1DF02DEF1DF00650D8A42BEF33
:103A50001DF02DEF1DF031EF1DF0000E0A6E79EF15
:103A60001DF020EE06F00450D9260550DA22DFA220
:103A70003CEF1DF03EEF1DF051EF1DF0C350C4CFE1
:103A800007F0086A07C008F0076A0726000E082238
:103A90000650D96EDA6A07C0DEFF08C0DDFF77EF97
:103AA0001DF020EE06F00450D9260550DA22DFB2D0
:103AB0005CEF1DF05EEF1DF03EEF1DF0C350C4CF74
:103AC00007F0086A07C008F0076A0726000E0822F8
:103AD000060E096E083408320732092E6AEF1DF00F
:103AE0000650D96EDA6A07C0DEFF08C0DDFF010E9E
:103AF0000A6E0A501200000E116E0D50D8B483EFFA
:103B00001DF085EF1DF08DEF1DF00E50D8A48BEF4A
:103B10001DF08DEF1DF091EF1DF0000E106ED3EF34
:103B20001DF00DC004F0056A110E066ED5EC1DF0F7
:103B30000D50D96EDA6A020ED926DF50D8A4A3EF51
:103B40001DF0A5EF1DF0BAEF1DF01104D8A4ABEFE6
:103B50001DF0ADEF1DF0B3EF1DF00E50D96EDA6A17
:103B6000DF6AD1EF1DF00E50D96EDA6A010EDF6EFA
:103B7000D1EF1DF00D50D96EDA6A020ED926DE049F
:103B8000D8A4C5EF1DF0C7EF1DF0D1EF1DF0110453
:103B9000D8A4CDEF1DF0CFEF1DF0ADEF1DF0B3EFCA
:103BA0001DF0010E106E10501200010E0C6E04502C
:103BB0000510D8B4DEEF1DF0E0EF1DF0F9EF1DF0B9
:103BC0000650D8B4E6EF1DF0E8EF1DF0F9EF1DF058
:103BD00004C0D9FF05C0DAFFDF30E832E832070B56
:103BE000076E070E0764F7EF1DF0F9EF1DF0FDEF0C
:103BF0001DF0000E0C6E2DEF1EF00650D96EDA6A25
:103C000004C0E1FF05C0E2FFE730E832E832070B0D
:103C1000076E04C0E1FF05C0E2FFE750070B086E26
:103C20000850020D000EF324E16E010EF420E26E46
:103C3000E6CF09F0E5CF0AF009C0E1FF0AC0E2FFD4
:103C4000E7500B6E072A27EF1EF0D8900B32072E95
:103C500025EF1EF00B50010BDF6E0C50120000011F
:103C6000FD51FE11D8A437EF1EF039EF1EF03BEFE7
:103C70001EF081EF1EF0F00EBA1620EE01F0FD519D
:103C8000D926FE51DA22DF50D8A449EF1EF04BEFBF
:103C90001EF04DEF1EF072EF1EF020EE01F0FD5110
:103CA000D926FE51DA22DE04D8A459EF1EF05BEFCC
:103CB0001EF05DEF1EF072EF1EF020EE01F0FD51E0
:103CC000D926FE51DA22020EDE18D8A46AEF1EF0C1
:103CD0006CEF1EF072EF1EF0FDC05EF0FEC05FF0F4
:103CE00060EC11F0030E0001FD250E6E000EFE21AA
:103CF0000F6EFFEC24F0FDC004F0FEC005F0DCEC1C
:103D000027F012000001FD51FE11D8A48AEF1EF029
:103D10008CEF1EF08EEF1EF0D4EF1EF0F00EBD16ED
:103D200020EE01F0FD51D926FE51DA22DF50D8A451
:103D30009CEF1EF09EEF1EF0A0EF1EF0C5EF1EF0F0
:103D400020EE01F0FD51D926FE51DA22DE04D8A47E
:103D5000ACEF1EF0AEEF1EF0B0EF1EF0C5EF1EF0A0
:103D600020EE01F0FD51D926FE51DA22020EDE18B6
:103D7000D8A4BDEF1EF0BFEF1EF0C5EF1EF0FDC0D2
:103D80005EF0FEC05FF02AEC12F0030E0001FD258C
:103D90000E6E000EFE210F6EFFEC24F0FDC004F04D
:103DA000FEC005F0EBEC27F0120006500710D8A477
:103DB000DCEF1EF0DEEF1EF0E0EF1EF025EF1FF04F
:103DC000CD9020EE03F00650D9260750DA22DF50BE
:103DD000086E083ACD500818CF0B0818CD6E06C0F3
:103DE00004F007C005F01CEC24F020EE01F00650B2
:103DF000D9260750DA22DECF08F0DDCF09F009C05E
:103E000008F0096A0850CF6E20EE01F00650D9265E
:103E10000750DA22DF50CE6E20EE01F00650D92690
:103E20000750DA22DECF98F0DDCF99F09D809E908A
:103E300020EE04F00650D9260750DA22DECF96F0A5
:103E4000DDCF97F0F28EF28CCD801200ED0E076E72
:103E5000600E086EE0C009F0730E0A6E43EC27F0A6
:103E6000ED0E076E600E086E010E096E730E0A6E7F
:103E700043EC27F0ED0E076E600E086EDEC009F011
:103E8000730E0A6E43EC27F0ED0E076E600E086E9F
:103E9000DDC009F0730E0A6E43EC27F0ED0E076EDD
:103EA000600E086EDCC009F0730E0A6E43EC27F05A
:103EB000ED0E076E600E086EDBC009F0730E0A6E21
:103EC00043EC27F0ED0E076E600E086EDAC009F0C5
:103ED000730E0A6E43EC27F0ED0E076E600E086E4F
:103EE000D9C009F0730E0A6E43EC27F01200010EE0
:103EF000616E6050D8A47FEF1FF081EF1FF085EF57
:103F00001FF0000E616EC5EF1FF0C69A60C05EF034
:103F100002EC17F08AEC28F06050D96EDA6A060ECF
:103F2000D926DFB296EF1FF098EF1FF09BEF1FF03E
:103F3000C79EA8EF1FF06050D96EDA6A060ED92628
:103F4000DFA2A5EF1FF0A7EF1FF0A8EF1FF0C78EAD
:103F50006050D96EDA6A060ED926DFA4B2EF1FF0E0
:103F6000B4EF1FF0B7EF1FF0C78CC4EF1FF0605025
:103F7000D96EDA6A060ED926DFB4C1EF1FF0C3EF9F
:103F80001FF0C4EF1FF0C79CC68A61501200ED0EEF
:103F9000076ED00E086E000E096EDE0E0A6ED80E89
:103FA0000B6E76EC22F0ED0E076ED00E086E010E51
:103FB000096EDD0E0A6ED70E0B6E76EC22F0ED0E5A
:103FC000076ED00E086E020E096EDC0E0A6ED60E5B
:103FD0000B6E76EC22F0ED0E076ED00E086E040E1E
:103FE000096EDB0E0A6ED50E0B6E76EC22F0ED0E2E
:103FF000076ED00E086E050E096EDA0E0A6ED40E2C
:104000000B6E76EC22F0ED0E076ED00E086E060EEB
:10401000096ED90E0A6ED30E0B6E76EC22F01200EA
:10402000140EF66E4B0EF76E000EF86E01EE00F0F9
:1040300010EE4CF00900F5CFEEFFE550E150FAE14B
:10404000120EF66E500EF76E000EF86E00EEE1F0F6
:1040500010EE1CF00900F5CFEEFFE550E150FAE15B
:104060000C0EF66E510EF76E000EF86E00EE75F047
:1040700010EE07F00900F5CFEEFFE550E150FAE150
:1040800001EE4CF0110EEE6AE806FDE100EE80F064
:10409000610EEE6AE806FDE100EE6AF00B0EEE6AD4
:1040A000E806FDE17C907C9200013BEF26F0010EDA
:1040B000096E07500810D8A460EF20F062EF20F0DE
:1040C00066EF20F0000E096E9CEF20F0D59E07C031
:1040D00004F008C005F062EC25F007C004F008C049
:1040E00005F0C8EC24F007C004F008C005F028EC87
:1040F00027F0000ED76E20EE04F00750D9260850A6
:10410000DA22DF50D66E20EE01F00750D926085093
:10411000DA22DECF9AF0DDCF9BF0F28AF29420EE25
:1041200005F00750D9260850DA22DECF9CF0DDCF0B
:104130009DF0F28EF28CD58E095012001C50D8A43E
:10414000A4EF20F0A6EF20F0A8EF20F0E3EF20F09E
:104150001CC018F01DC019F01EC01AF0B4EC21F0FC
:10416000CAEF20F01CC011F01FC0F6FF20C0F7FFFF
:10417000000EF86E0F0EF76403D00800F55005D05E
:10418000F6CFE9FFF7CFEAFFEF50126EF3EC22F023
:104190001F4A202A1FC0F6FF20C0F7FF000EF86E4E
:1041A0000F0EF76403D00800F55005D0F6CFE9FFF5
:1041B000F7CFEAFFEF500009D8A4E1EF20F0E3EFDA
:1041C00020F0B2EF20F01200C150F00B0E09C16ECA
:1041D000E30E186EB7EC18F0360E126E010E136E69
:1041E000B5EC22F0FC0E126E8FEC24F0FA0E126E7B
:1041F00059EC1CF07A0E0E6E0F6AFFEC24F0790E6B
:104200000E6E0F6AFFEC24F07B0E126E8FEC24F022
:10421000ED0E606E77EC1FF0F70E0D6ECCEC27F014
:104220003E0E076E010E086EBCEC1CF01E0E010166
:104230005D6F010E5E6F6BEC23F02E0E076E010EAC
:10424000086E57EC20F0450E066E010E076ED5EC99
:104250001EF01200010E076E04500510D8A433EFB3
:1042600021F035EF21F039EF21F0000E076E6EEFEF
:1042700021F0CA9420EE04F00450D9260550DA2229
:10428000DF50066ECA500618FC0B0618CA6E20EEE8
:1042900003F00450D9260550DA22DF50066E064698
:1042A00006460646CA500618870B0618CA6E20EE48
:1042B00005F00450D9260550DA22DF50CC6ECCCF61
:1042C0006CF09D829E9204C0D9FF05C0DAFFDECF5C
:1042D00094F0DDCF95F0F28EF28CCA840750120074
:1042E0000450D8B476EF21F078EF21F080EF21F080
:1042F0000650D8A47EEF21F080EF21F082EF21F06C
:10430000B3EF21F0C586C7A088EF21F08AEF21F036
:1043100083EF21F00650D96EDA6AC9CFDFFF05506E
:10432000D8A495EF21F097EF21F0A2EF21F0C59AE4
:10433000C588C5B89EEF21F0A0EF21F099EF21F0DC
:10434000B3EF21F00504D8A4A8EF21F0AAEF21F0E3
:10435000B3EF21F0C58AC588C5B8B1EF21F0B3EF3E
:1043600021F0ACEF21F012001A06010E1B6EE1EFF6
:1043700021F018C011F01A50800F126E2FEC23F0AC
:104380001B6EF4EF21F018C011F01A50C00F126E1E
:104390002FEC23F01B6EF4EF21F018C011F01A502F
:1043A000940F126E2FEC23F01B6EF4EF21F018C067
:1043B00011F01A50D40F126E2FEC23F01B6EF4EF95
:1043C00021F01950010AD8B4B9EF21F0030AD8B48A
:1043D000C3EF21F0010AD8B4CDEF21F0070AD8B419
:1043E000D7EF21F0F4EF21F01B501200000E166EF3
:1043F000000E176EC80E186E420E196E000E2F6E4C
:10440000C00E306E7F0E316E440E326ED1C004F09D
:10441000D2C005F0066A076A000E86EC10F004C0F0
:104420002BF005C02CF006C02DF007C02EF0B9EC23
:104430000EF02BC012F02CC013F02DC014F02EC0C3
:1044400015F0A9EC0AF012C054F013C055F014C0D6
:1044500056F015C057F0BFEC19F054500001C06F72
:10446000C05164083BEC19F078EC28F012000750BA
:10447000D8B43DEF22F03FEF22F047EF22F00B508F
:10448000D8A445EF22F047EF22F049EF22F075EF74
:1044900022F007C004F07BEC26F007C004F008C04F
:1044A00005F00BC006F032EC25F007C004F009C09F
:1044B00005F00BC006F032EC25F007C004F05CEC10
:1044C00027F007C004F00828056E0BC006F032EC98
:1044D00025F007C004F0010E056E0AC006F070EC6E
:1044E00021F007C004F05BEC26F012000750D8B4AE
:1044F0007CEF22F07EEF22F086EF22F00B50D8A462
:1045000084EF22F086EF22F088EF22F0B4EF22F061
:1045100007C004F07BEC26F007C004F008C005F0EB
:104520000BC006F032EC25F007C004F009C005F01E
:104530000BC006F032EC25F007C004F05CEC27F06D
:1045400007C004F00828056E0BC006F032EC25F019
:1045500007C004F0010E056E0AC006F070EC21F0F1
:1045600007C004F05BEC26F0120012501310D8A420
:10457000BCEF22F0BEEF22F0C2EF22F0000E166E6A
:10458000F1EF22F0000E176E000E176E1750122476
:104590000E6E000E13200F6EFFEC24F0172A030E90
:1045A0001764D5EF22F0D7EF22F0C6EF22F0000E0D
:1045B000186E18501224146E000E1320156E040E7F
:1045C0001424046E000E1520056E6AEC16F0166EAB
:1045D000182A030E1864EFEF22F0F1EF22F0D9EF62
:1045E00022F016501200000E166E1150D8A4FBEFE8
:1045F00022F0FDEF22F0FFEF22F02EEF23F011C0AA
:1046000004F0056A010E066E99EC17F0000E166EA6
:1046100011501624136E020E132613C004F0056AFF
:1046200016C014F012C015F0142A19EF23F0D89018
:104630001532142E17EF23F01550010B066E99EC6E
:1046400017F0162A070E166428EF23F02AEF23F03E
:1046500008EF23F011C00EF09BEC26F01200010EC3
:10466000166E1150D8A437EF23F039EF23F03BEF4B
:1046700023F06AEF23F011C004F0056A000E066E05
:1046800099EC17F0000E176E11501724136E020EDE
:10469000132613C004F0056A17C014F012C015F0F9
:1046A000142A55EF23F0D8901532142E53EF23F02F
:1046B0001550010B066E99EC17F0172A070E1764B8
:1046C00064EF23F066EF23F044EF23F011C00EF007
:1046D0009BEC26F01200010E01015F6F5D515E112F
:1046E000D8A475EF23F077EF23F07BEF23F0000ED3
:1046F0005F6FA3EF23F05DC1D9FF5EC1DAFFDF502A
:10470000D8A485EF23F087EF23F08FEF23F05DC16E
:10471000FDF05EC1FEF082EC1EF0A3EF23F05DC160
:10472000D9FF5EC1DAFFDE04D8A499EF23F09BEF36
:1047300023F0A3EF23F05DC1FDF05EC1FEF02FEC8E
:104740001EF0A3EF23F001015F511200010E106E65
:104750000E50D8A4AEEF23F0B0EF23F0B4EF23F067
:10476000000E106EDFEF23F0C7C011F00E50D96EAF
:10477000DA6ADF500F0B0F6E11500F18F80B0F187D
:10478000116E0E50D96EDA6ADF38070B0F6E0F46C6
:104790000F460F4611500F18C70B0F18116E119CC2
:1047A0000E50D96EDA6ADFAE02D0118E01D0119EA2
:1047B000110E046E056A010E066E99EC17F010508A
:1047C0001200010E106E0E50D8A4E9EF23F0EBEFAB
:1047D00023F0EFEF23F0000E106E1AEF24F0C6C0A6
:1047E00011F00E50D96EDA6ADF500F0B0F6E1150B8
:1047F0000F18F80B0F18116E0E50D96EDA6ADF38E9
:10480000070B0F6E0F460F460F4611500F18C70BC0
:104810000F18116E119C0E50D96EDA6ADFAE02D0FD
:10482000118E01D0119E110E046E056A000E066EE7
:1048300099EC17F0105012003EEF24F0CD8255EFA6
:1048400024F0CD9204C0D9FF05C0DAFFDFB82BEF0A
:1048500024F02DEF24F030EF24F0CD9455EF24F028
:1048600004C0D9FF05C0DAFFDFA839EF24F03BEF21
:1048700024F055EF24F0CD8455EF24F004C0D9FF87
:1048800005C0DAFFDFB647EF24F04AEF24F0010E4F
:104890004BEF24F0000E000AD8B421EF24F0010AF7
:1048A000D8B41EEF24F055EF24F01200010E136E61
:1048B0001150D8B45EEF24F060EF24F068EF24F0DC
:1048C0001250D8A466EF24F068EF24F06CEF24F0C7
:1048D000000E136E8DEF24F011C00AF02FEC18F0CB
:1048E0000AC014F00BC015F015BE79EF24F07BEF71
:1048F00024F068EF24F015BE84EF24F01504D8A04E
:1049000084EF24F086EF24F088EF24F068EF24F0A1
:104910001250D96EDA6A14C0DFFF13501200010E74
:10492000146E1250D8A497EF24F099EF24F09DEF65
:1049300024F0000E146EC6EF24F0C8C015F012501B
:10494000D96EDA6ADF500F0B136E15501318F80B7F
:104950001318156E1250D96EDA6ADF38070B136E12
:1049600013461346134615501318C70B1318156E2C
:10497000159C1250D96EDA6ADFAE02D0158E01D0C6
:10498000159E150E0E6E0F6AFFEC24F014501200E7
:1049900004C0D9FF05C0DAFFDFA4D1EF24F0D3EFC4
:1049A00024F0D6EF24F0D59AFEEF24F004C0D9FF0E
:1049B00005C0DAFFDFB4DFEF24F0E1EF24F0FEEF13
:1049C00024F0D58A04C0D9FF05C0DAFFDFA2EBEFDF
:1049D00024F0EDEF24F0F0EF24F0D598FEEF24F072
:1049E00004C0D9FF05C0DAFFDFB2F9EF24F0FBEF16
:1049F00024F0FEEF24F0D588FEEF24F012000E50D4
:104A00000F10D8B406EF25F008EF25F019EF25F0C8
:104A10000EC0D9FF0FC0DAFFDF30E832E832070BF3
:104A2000106E070E106417EF25F019EF25F01BEF3D
:104A300025F031EF25F00EC004F00FC005F06AEC50
:104A400016F0116E0EC004F00FC005F00EC0D9FFB5
:104A50000FC0DAFF000EDFBE010E066E99EC17F0F4
:104A6000116E12000450D8A438EF25F03AEF25F06B
:104A70003CEF25F061EF25F005C0C9FF9EA643EF8E
:104A800025F045EF25F03EEF25F09E96C5AC4BEFA7
:104A900025F04DEF25F054EF25F00650D96EDA6A77
:104AA000010EDF6E61EF25F0C5BC59EF25F05BEF1D
:104AB00025F061EF25F00650D96EDA6ADF6A61EF02
:104AC00025F0120004C0D9FF05C0DAFFDFA06BEFAC
:104AD00025F06DEF25F07DEF25F0D59620EE04F062
:104AE0000450D9260550DA22DF50066ED55006183C
:104AF000F80B0618D56E89EF25F004C0D9FF05C064
:104B0000DAFFDFB086EF25F088EF25F089EF25F09A
:104B1000D5861200800F810F820F830F840F890FBB
:104B20008A0F8B0F8C0F8D0F920F930F940F950F91
:104B3000960F00020C120088130000110000000004
:104B4000000005DC0B00042C4F00030B131B636BF0
:104B5000737B0000000201000214F0D8030451002E
:104B600020EE06F00450D9260550DA22DFA0BBEF74
:104B700025F0BDEF25F0C1EF25F0C18AC188D4EF43
:104B800025F020EE06F00450D9260550DA22DFB0D9
:104B9000CCEF25F0CEEF25F0D2EF25F0C19AC198E9
:104BA000D4EF25F0C19AC198120020EE06F004500F
:104BB000D9260550DA22DFA2E0EF25F0E2EF25F05A
:104BC000E5EF25F0C08EF6EF25F020EE06F004505C
:104BD000D9260550DA22DFB2F0EF25F0F2EF25F00A
:104BE000F5EF25F0C09EF6EF25F0C08E1200790E8D
:104BF000046E056A740E066ED5EC1DF07404D8A41C
:104C000004EF26F006EF26F00CEF26F07B0E0E6E7A
:104C1000A6EC23F018EF26F07450D8A412EF26F07B
:104C200014EF26F018EF26F07B0E0E6EE1EC23F069
:104C300012000C500D10D8A420EF26F022EF26F021
:104C400026EF26F0000E0F6E39EF26F09E9C0CC06A
:104C500007F00DC008F00EC009F0B8EC26F00F6E9A
:104C60000CC004F00DC005F0A9EC27F00F6E010E8A
:104C70000F6E0F501200E4EC20F066EC14F0C7EC5D
:104C80001FF0FAEC27F0520E046E010E056E2AECAE
:104C900021F0BBEC27F0F6EC21F0520E046E010E71
:104CA000056E83EC27F0F7EC25F026EC1FF03DEFC6
:104CB00026F007EF00F00450D8A461EF26F063EF70
:104CC00026F067EF26F0000E056E79EF26F0C5841A
:104CD000C5B46DEF26F06FEF26F068EF26F09E96D4
:104CE000C7A875EF26F077EF26F063EF26F0010EE8
:104CF000056E055012000450D8A481EF26F083EF12
:104D000026F087EF26F0000E056E99EF26F0C5809D
:104D1000C5B08DEF26F08FEF26F088EF26F09E9637
:104D2000C7A695EF26F097EF26F083EF26F0010E49
:104D3000056E055012000EC00FF0010E0F260FC0B9
:104D400004F0056A010E066E99EC17F0030EE82ECA
:104D5000FED700000EC00FF0010E0F260FC004F0AA
:104D6000056A000E066E99EC17F0106E10501200D6
:104D700007500810D8A4BFEF26F0C1EF26F0C5EF0A
:104D800026F0000E0B6ED3EF26F009C00AF00A469B
:104D90000A46C2500A18C30B0A18C26E0950B8EC72
:104DA0001AF0010E0B6E0B5012009E9000019951EB
:104DB000CF6E98C0CEFF96519711D8B4E2EF26F08F
:104DC000E4EF26F0F0EF26F002D8F0EF26F0050031
:104DD000FA6E9651FD6E9751FE6EFF6AFA50120000
:104DE0001200F29400019B51D76E9AC0D6FF9C51DD
:104DF0009D11D8B4FEEF26F000EF27F00CEF27F05E
:104E000002D80CEF27F00500FA6E9C51FD6E9D5103
:104E1000FE6EFF6AFA50120012001C50D8A413EF65
:104E200027F015EF27F017EF27F027EF27F01CC02A
:104E300018F01DC019F01EC01AF0B4EC21F0206E5D
:104E40001CC011F01FC012F0F3EC22F0206E120013
:104E500004C0D9FF05C0DAFFDFA631EF27F033EF3A
:104E600027F036EF27F0D58C42EF27F004C0D9FFAA
:104E700005C0DAFFDFB63FEF27F041EF27F042EF42
:104E800027F0D59C120007C004F07BEC26F007C089
:104E900004F008C005F00AC006F032EC25F007C0A7
:104EA00004F009C005F00AC006F032EC25F007C096
:104EB00004F05BEC26F012000450D8A462EF27F057
:104EC00064EF27F066EF27F06FEF27F0C582C5B2D9
:104ED0006CEF27F06EEF27F067EF27F09E96120039
:104EE00004500602F3CF08F0F4CF09F00450070293
:104EF000F350092605500602F350092608C004F0B5
:104F000009C005F01200010E066E04500510D8A469
:104F10008CEF27F08EEF27F092EF27F0000E066E51
:104F200094EF27F0CA949D92065012000001804B26
:104F3000812B80518111D8B4A0EF27F0A2EF27F088
:104F4000A8EF27F0010EBB6F000E816F000E806F7F
:104F5000120004500510D8A4B0EF27F0B2EF27F0EC
:104F6000B6EF27F0000E066EB9EF27F0C282010EF1
:104F7000066E065012003E0E0C6E010E0D6E000EF7
:104F80000E6E19EC26F03E0E046E010E056ED10E6B
:104F9000066E1CEC1DF012000D50D8A4D2EF27F0C5
:104FA000D4EF27F0D6EF27F0DBEF27F00DC004F0A9
:104FB000056A6AEC16F01200A080A19020EE0DF0B8
:104FC0000450D9260550DA22DECFB4F0DDCFB5F09B
:104FD000F28EF28C12009D849E9420EE0AF0045012
:104FE000D9260550DA22DECFB6F0DDCFB7F0F28E4B
:104FF000F28C1200ED0E076E980E086E000E096E10
:10500000E00E0A6EDF0E0B6E37EC22F057EC28F044
:1050100012000101040C0109111921293139A0865E
:105020000100080003580100540100105222016ED3
:10503000F2900104D8A41FEF28F021EF28F023EF0D
:1050400028F023EF28F01200016EF2900104D8A49A
:105050002CEF28F02EEF28F030EF28F030EF28F07A
:105060001200016EF2900104D8A439EF28F03BEF52
:1050700028F03DEF28F03DEF28F01200016EF2908D
:105080000104D8A446EF28F048EF28F04AEF28F0B2
:105090004AEF28F01200000E0001BB6FBB51D8B4DC
:1050A00054EF28F056EF28F04EEF28F01200000ED3
:1050B0000001BA6FBA51D8B460EF28F062EF28F05F
:1050C0005AEF28F01200FA0E0E6E24EC1BF04BEC97
:1050D00028F01200FA0E0E6E8BEC1BF04BEC28F051
:1050E0001200A19200019151B36E90C0B2FF120064
:1050F000BD50F00B0C09BD6E010E12009E926CC0EB
:10510000CCFF1200010E0001BA6F12000101010173
:035110004A022030
:10511400948694881200F0921200F0901200F29299
:1051240012009D981200A19012009E9412009E9C61
:0851340012001200120012002B
:00000001FF
